{
    "contractName": "NFT",
    "abi": [
        {
            "inputs": [
                {
                    "internalType": "enum NFT.tip",
                    "name": "izbor",
                    "type": "uint8"
                },
                {
                    "internalType": "uint256",
                    "name": "__id",
                    "type": "uint256"
                },
                {
                    "internalType": "address",
                    "name": "__owner",
                    "type": "address"
                },
                {
                    "internalType": "bytes32",
                    "name": "__name",
                    "type": "bytes32"
                },
                {
                    "internalType": "uint256",
                    "name": "__price",
                    "type": "uint256"
                }
            ],
            "stateMutability": "nonpayable",
            "type": "constructor"
        },
        {
            "inputs": [
                {
                    "internalType": "bytes32",
                    "name": "newName",
                    "type": "bytes32"
                }
            ],
            "name": "changeName",
            "outputs": [],
            "stateMutability": "nonpayable",
            "type": "function"
        },
        {
            "inputs": [],
            "name": "choice",
            "outputs": [
                {
                    "internalType": "enum NFT.tip",
                    "name": "",
                    "type": "uint8"
                }
            ],
            "stateMutability": "view",
            "type": "function"
        },
        {
            "inputs": [],
            "name": "id",
            "outputs": [
                {
                    "internalType": "uint256",
                    "name": "",
                    "type": "uint256"
                }
            ],
            "stateMutability": "view",
            "type": "function"
        },
        {
            "inputs": [],
            "name": "name",
            "outputs": [
                {
                    "internalType": "bytes32",
                    "name": "",
                    "type": "bytes32"
                }
            ],
            "stateMutability": "view",
            "type": "function"
        },
        {
            "inputs": [],
            "name": "owner",
            "outputs": [
                {
                    "internalType": "address",
                    "name": "",
                    "type": "address"
                }
            ],
            "stateMutability": "view",
            "type": "function"
        },
        {
            "inputs": [],
            "name": "price",
            "outputs": [
                {
                    "internalType": "uint256",
                    "name": "",
                    "type": "uint256"
                }
            ],
            "stateMutability": "view",
            "type": "function"
        }
    ],
    "bytecode": "608060405234801561001057600080fd5b5060405161028538038061028583398101604081905261002f91610094565b6004805486919060ff1916600183600281111561005c57634e487b7160e01b600052602160045260246000fd5b0217905550600093909355600180546001600160a01b0319166001600160a01b039390931692909217909155600255600355506100f5565b600080600080600060a086880312156100ab578081fd5b8551600381106100b9578182fd5b6020870151604088015191965094506001600160a01b03811681146100dc578182fd5b6060870151608090970151959894975095949392505050565b610181806101046000396000f3fe608060405234801561001057600080fd5b50600436106100625760003560e01c806306fdde0314610067578063898855ed146100835780638da5cb5b1461009857806398f42fe3146100c3578063a035b1fe146100dd578063af640d0f146100e6575b600080fd5b61007060025481565b6040519081526020015b60405180910390f35b61009661009136600461010b565b6100ef565b005b6001546100ab906001600160a01b031681565b6040516001600160a01b03909116815260200161007a565b6004546100d09060ff1681565b60405161007a9190610123565b61007060035481565b61007060005481565b6001546001600160a01b03163314156101085760028190555b50565b60006020828403121561011c578081fd5b5035919050565b602081016003831061014557634e487b7160e01b600052602160045260246000fd5b9190529056fea2646970667358221220b0221e7e1d1f74b769329f07518acdf7330ffe01e915ee837af5521d8f96317564736f6c63430008030033",
    "sourcePath": "d:/Code/Python/MarketPlace/nft.sol",
    "compiler": {
        "name": "solc",
        "version": "0.8.3+commit.8d00100c"
    },
    "functionHashes": {
        "changeName(bytes32)": "898855ed",
        "choice()": "98f42fe3",
        "id()": "af640d0f",
        "name()": "06fdde03",
        "owner()": "8da5cb5b",
        "price()": "a035b1fe"
    },
    "gasEstimates": {
        "creation": {
            "codeDepositCost": "77000",
            "executionCost": "infinite",
            "totalCost": "infinite"
        },
        "external": {
            "changeName(bytes32)": "21075",
            "choice()": "1095",
            "id()": "1072",
            "name()": "962",
            "owner()": "1059",
            "price()": "1050"
        },
        "internal": {
            "ChangeOwner(address)": "infinite"
        }
    }
}